{
  "contractName": "LegitHub",
  "abi": [
    {
      "inputs": [],
      "payable": false,
      "stateMutability": "nonpayable",
      "type": "constructor"
    },
    {
      "anonymous": false,
      "inputs": [
        {
          "indexed": false,
          "internalType": "uint256",
          "name": "id",
          "type": "uint256"
        },
        {
          "indexed": false,
          "internalType": "uint256",
          "name": "serialNumber",
          "type": "uint256"
        },
        {
          "indexed": false,
          "internalType": "string",
          "name": "name",
          "type": "string"
        },
        {
          "indexed": false,
          "internalType": "string",
          "name": "soldDate",
          "type": "string"
        },
        {
          "indexed": false,
          "internalType": "string",
          "name": "manufacturedDate",
          "type": "string"
        },
        {
          "indexed": false,
          "internalType": "address",
          "name": "owner",
          "type": "address"
        }
      ],
      "name": "itemCreated",
      "type": "event"
    },
    {
      "constant": true,
      "inputs": [],
      "name": "itemCount",
      "outputs": [
        {
          "internalType": "uint256",
          "name": "",
          "type": "uint256"
        }
      ],
      "payable": false,
      "stateMutability": "view",
      "type": "function"
    },
    {
      "constant": true,
      "inputs": [
        {
          "internalType": "uint256",
          "name": "",
          "type": "uint256"
        }
      ],
      "name": "items",
      "outputs": [
        {
          "internalType": "uint256",
          "name": "id",
          "type": "uint256"
        },
        {
          "internalType": "uint256",
          "name": "serialNumber",
          "type": "uint256"
        },
        {
          "internalType": "string",
          "name": "name",
          "type": "string"
        },
        {
          "internalType": "string",
          "name": "manfacturedDate",
          "type": "string"
        },
        {
          "internalType": "string",
          "name": "soldDate",
          "type": "string"
        },
        {
          "internalType": "address",
          "name": "owner",
          "type": "address"
        }
      ],
      "payable": false,
      "stateMutability": "view",
      "type": "function"
    },
    {
      "constant": true,
      "inputs": [],
      "name": "manufacturer",
      "outputs": [
        {
          "internalType": "address",
          "name": "",
          "type": "address"
        }
      ],
      "payable": false,
      "stateMutability": "view",
      "type": "function"
    },
    {
      "constant": false,
      "inputs": [
        {
          "internalType": "uint256",
          "name": "_serialNumber",
          "type": "uint256"
        },
        {
          "internalType": "string",
          "name": "_name",
          "type": "string"
        },
        {
          "internalType": "string",
          "name": "_manufacturedDate",
          "type": "string"
        }
      ],
      "name": "addItem",
      "outputs": [
        {
          "internalType": "uint256",
          "name": "",
          "type": "uint256"
        }
      ],
      "payable": false,
      "stateMutability": "nonpayable",
      "type": "function"
    },
    {
      "constant": true,
      "inputs": [
        {
          "internalType": "uint256",
          "name": "_serialNumber",
          "type": "uint256"
        }
      ],
      "name": "verifyItem",
      "outputs": [
        {
          "internalType": "bool",
          "name": "",
          "type": "bool"
        }
      ],
      "payable": false,
      "stateMutability": "view",
      "type": "function"
    },
    {
      "constant": false,
      "inputs": [
        {
          "internalType": "uint256",
          "name": "_serialNumber",
          "type": "uint256"
        },
        {
          "internalType": "string",
          "name": "_soldDate",
          "type": "string"
        },
        {
          "internalType": "address",
          "name": "_newOwner",
          "type": "address"
        }
      ],
      "name": "sellItem",
      "outputs": [
        {
          "internalType": "bool",
          "name": "",
          "type": "bool"
        }
      ],
      "payable": false,
      "stateMutability": "nonpayable",
      "type": "function"
    },
    {
      "constant": false,
      "inputs": [
        {
          "internalType": "uint256",
          "name": "_serialNumber",
          "type": "uint256"
        },
        {
          "internalType": "string",
          "name": "_soldDate",
          "type": "string"
        },
        {
          "internalType": "address",
          "name": "_newOwner",
          "type": "address"
        }
      ],
      "name": "resellItem",
      "outputs": [
        {
          "internalType": "bool",
          "name": "",
          "type": "bool"
        }
      ],
      "payable": false,
      "stateMutability": "nonpayable",
      "type": "function"
    },
    {
      "constant": true,
      "inputs": [
        {
          "internalType": "uint256",
          "name": "_serialNumber",
          "type": "uint256"
        }
      ],
      "name": "compareSendertoOwner",
      "outputs": [
        {
          "internalType": "bool",
          "name": "",
          "type": "bool"
        }
      ],
      "payable": false,
      "stateMutability": "view",
      "type": "function"
    },
    {
      "constant": true,
      "inputs": [
        {
          "internalType": "uint256",
          "name": "_serialNumber",
          "type": "uint256"
        }
      ],
      "name": "itemExists",
      "outputs": [
        {
          "internalType": "bool",
          "name": "",
          "type": "bool"
        }
      ],
      "payable": false,
      "stateMutability": "view",
      "type": "function"
    },
    {
      "constant": true,
      "inputs": [
        {
          "internalType": "uint256",
          "name": "_serialNumber",
          "type": "uint256"
        }
      ],
      "name": "validSerial",
      "outputs": [
        {
          "internalType": "bool",
          "name": "",
          "type": "bool"
        }
      ],
      "payable": false,
      "stateMutability": "pure",
      "type": "function"
    },
    {
      "constant": true,
      "inputs": [
        {
          "internalType": "uint256",
          "name": "_serialNumber",
          "type": "uint256"
        }
      ],
      "name": "getOwner",
      "outputs": [
        {
          "internalType": "address",
          "name": "itemOwner",
          "type": "address"
        }
      ],
      "payable": false,
      "stateMutability": "view",
      "type": "function"
    },
    {
      "constant": true,
      "inputs": [],
      "name": "getAddress",
      "outputs": [
        {
          "internalType": "address",
          "name": "",
          "type": "address"
        }
      ],
      "payable": false,
      "stateMutability": "view",
      "type": "function"
    },
    {
      "constant": true,
      "inputs": [
        {
          "internalType": "uint256",
          "name": "_serialNumber",
          "type": "uint256"
        }
      ],
      "name": "getSoldDate",
      "outputs": [
        {
          "internalType": "string",
          "name": "",
          "type": "string"
        }
      ],
      "payable": false,
      "stateMutability": "view",
      "type": "function"
    }
  ],
  "bytecode": "0x6080604052600060015534801561001557600080fd5b50336000806101000a81548173ffffffffffffffffffffffffffffffffffffffff021916908373ffffffffffffffffffffffffffffffffffffffff1602179055506114c8806100656000396000f3fe608060405234801561001057600080fd5b50600436106100ce5760003560e01c80637afc9f0d1161008c578063bfb231d211610066578063bfb231d214610441578063c41a360a14610601578063cb5442121461066f578063cc4e6ebc146107df576100ce565b80637afc9f0d146102b8578063843bd641146102fe578063ac762d2614610344576100ce565b8062bd0474146100d357806326912fdf1461011957806338cc4831146101c05780635116c1341461020a5780636bfb0d0114610250578063747542821461026e575b600080fd5b6100ff600480360360208110156100e957600080fd5b81019080803590602001909291905050506108dc565b604051808215151515815260200191505060405180910390f35b6101456004803603602081101561012f57600080fd5b8101908080359060200190929190505050610924565b6040518080602001828103825283818151815260200191508051906020019080838360005b8381101561018557808201518184015260208101905061016a565b50505050905090810190601f1680156101b25780820380516001836020036101000a031916815260200191505b509250505060405180910390f35b6101c86109ea565b604051808273ffffffffffffffffffffffffffffffffffffffff1673ffffffffffffffffffffffffffffffffffffffff16815260200191505060405180910390f35b6102366004803603602081101561022057600080fd5b81019080803590602001909291905050506109f2565b604051808215151515815260200191505060405180910390f35b610258610a2c565b6040518082815260200191505060405180910390f35b610276610a32565b604051808273ffffffffffffffffffffffffffffffffffffffff1673ffffffffffffffffffffffffffffffffffffffff16815260200191505060405180910390f35b6102e4600480360360208110156102ce57600080fd5b8101908080359060200190929190505050610a57565b604051808215151515815260200191505060405180910390f35b61032a6004803603602081101561031457600080fd5b8101908080359060200190929190505050610aed565b604051808215151515815260200191505060405180910390f35b6104276004803603606081101561035a57600080fd5b81019080803590602001909291908035906020019064010000000081111561038157600080fd5b82018360208201111561039357600080fd5b803590602001918460018302840111640100000000831117156103b557600080fd5b91908080601f016020809104026020016040519081016040528093929190818152602001838380828437600081840152601f19601f820116905080830192505050505050509192919290803573ffffffffffffffffffffffffffffffffffffffff169060200190929190505050610b42565b604051808215151515815260200191505060405180910390f35b61046d6004803603602081101561045757600080fd5b8101908080359060200190929190505050610bf0565b604051808781526020018681526020018060200180602001806020018573ffffffffffffffffffffffffffffffffffffffff1673ffffffffffffffffffffffffffffffffffffffff168152602001848103845288818151815260200191508051906020019080838360005b838110156104f35780820151818401526020810190506104d8565b50505050905090810190601f1680156105205780820380516001836020036101000a031916815260200191505b50848103835287818151815260200191508051906020019080838360005b8381101561055957808201518184015260208101905061053e565b50505050905090810190601f1680156105865780820380516001836020036101000a031916815260200191505b50848103825286818151815260200191508051906020019080838360005b838110156105bf5780820151818401526020810190506105a4565b50505050905090810190601f1680156105ec5780820380516001836020036101000a031916815260200191505b50995050505050505050505060405180910390f35b61062d6004803603602081101561061757600080fd5b8101908080359060200190929190505050610e14565b604051808273ffffffffffffffffffffffffffffffffffffffff1673ffffffffffffffffffffffffffffffffffffffff16815260200191505060405180910390f35b6107c96004803603606081101561068557600080fd5b8101908080359060200190929190803590602001906401000000008111156106ac57600080fd5b8201836020820111156106be57600080fd5b803590602001918460018302840111640100000000831117156106e057600080fd5b91908080601f016020809104026020016040519081016040528093929190818152602001838380828437600081840152601f19601f8201169050808301925050505050505091929192908035906020019064010000000081111561074357600080fd5b82018360208201111561075557600080fd5b8035906020019184600183028401116401000000008311171561077757600080fd5b91908080601f016020809104026020016040519081016040528093929190818152602001838380828437600081840152601f19601f820116905080830192505050505050509192919290505050610e61565b6040518082815260200191505060405180910390f35b6108c2600480360360608110156107f557600080fd5b81019080803590602001909291908035906020019064010000000081111561081c57600080fd5b82018360208201111561082e57600080fd5b8035906020019184600183028401116401000000008311171561085057600080fd5b91908080601f016020809104026020016040519081016040528093929190818152602001838380828437600081840152601f19601f820116905080830192505050505050509192919290803573ffffffffffffffffffffffffffffffffffffffff16906020019092919050505061122d565b604051808215151515815260200191505060405180910390f35b60008060009050600080600190505b6001548111610919576108fd816112f5565b91508482141561090c57600192505b80806001019150506108eb565b508192505050919050565b606060006109318361131a565b9050600260008281526020019081526020016000206004018054600181600116156101000203166002900480601f0160208091040260200160405190810160405280929190818152602001828054600181600116156101000203166002900480156109dd5780601f106109b2576101008083540402835291602001916109dd565b820191906000526020600020905b8154815290600101906020018083116109c057829003601f168201915b5050505050915050919050565b600033905090565b60008060009050629896808310158015610a1057506305f5e0ff8311155b15610a1e5760019050610a23565b600090505b80915050919050565b60015481565b6000809054906101000a900473ffffffffffffffffffffffffffffffffffffffff1681565b600080600090506000610a698461131a565b90506002600082815260200190815260200160002060050160009054906101000a900473ffffffffffffffffffffffffffffffffffffffff1673ffffffffffffffffffffffffffffffffffffffff163373ffffffffffffffffffffffffffffffffffffffff161415610ade5760019150610ae3565b600091505b8192505050919050565b600080600090506000600190505b6001548111610b38578360026000838152602001908152602001600020600101541415610b2b5760019150610b38565b8080600101915050610afb565b5080915050919050565b600080610b4e8561131a565b90506000811415610b63576000915050610be9565b83600260008381526020019081526020016000206004019080519060200190610b8d92919061136e565b50826002600083815260200190815260200160002060050160006101000a81548173ffffffffffffffffffffffffffffffffffffffff021916908373ffffffffffffffffffffffffffffffffffffffff16021790555060019150505b9392505050565b6002602052806000526040600020600091509050806000015490806001015490806002018054600181600116156101000203166002900480601f016020809104026020016040519081016040528092919081815260200182805460018160011615610100020316600290048015610ca85780601f10610c7d57610100808354040283529160200191610ca8565b820191906000526020600020905b815481529060010190602001808311610c8b57829003601f168201915b505050505090806003018054600181600116156101000203166002900480601f016020809104026020016040519081016040528092919081815260200182805460018160011615610100020316600290048015610d465780601f10610d1b57610100808354040283529160200191610d46565b820191906000526020600020905b815481529060010190602001808311610d2957829003601f168201915b505050505090806004018054600181600116156101000203166002900480601f016020809104026020016040519081016040528092919081815260200182805460018160011615610100020316600290048015610de45780601f10610db957610100808354040283529160200191610de4565b820191906000526020600020905b815481529060010190602001808311610dc757829003601f168201915b5050505050908060050160009054906101000a900473ffffffffffffffffffffffffffffffffffffffff16905086565b600080610e208361131a565b90506002600082815260200190815260200160002060050160009054906101000a900473ffffffffffffffffffffffffffffffffffffffff16915050919050565b60008060009054906101000a900473ffffffffffffffffffffffffffffffffffffffff1673ffffffffffffffffffffffffffffffffffffffff163373ffffffffffffffffffffffffffffffffffffffff1614610ebc57600080fd5b629896808410158015610ed357506305f5e0ff8411155b610edc57600080fd5b629896808410158015610ef357506305f5e0ff8411155b15611221576001600081548092919060010191905055506040518060c0016040528060015481526020018581526020018481526020018381526020016040518060400160405280600a81526020017f30302f30302f303030300000000000000000000000000000000000000000000081525081526020016000809054906101000a900473ffffffffffffffffffffffffffffffffffffffff1673ffffffffffffffffffffffffffffffffffffffff1681525060026000600154815260200190815260200160002060008201518160000155602082015181600101556040820151816002019080519060200190610fea9291906113ee565b5060608201518160030190805190602001906110079291906113ee565b5060808201518160040190805190602001906110249291906113ee565b5060a08201518160050160006101000a81548173ffffffffffffffffffffffffffffffffffffffff021916908373ffffffffffffffffffffffffffffffffffffffff1602179055509050507f5c8a08bb423c6fc42aeeb5523600cb14be0c93c6e50c836a21f2d521bdd1f5da6001548585856000809054906101000a900473ffffffffffffffffffffffffffffffffffffffff16604051808681526020018581526020018060200180602001806020018573ffffffffffffffffffffffffffffffffffffffff1673ffffffffffffffffffffffffffffffffffffffff168152602001848103845287818151815260200191508051906020019080838360005b8381101561113e578082015181840152602081019050611123565b50505050905090810190601f16801561116b5780820380516001836020036101000a031916815260200191505b50848103835286818151815260200191508051906020019080838360005b838110156111a4578082015181840152602081019050611189565b50505050905090810190601f1680156111d15780820380516001836020036101000a031916815260200191505b508481038252600a8152602001807f30302f30302f30303030000000000000000000000000000000000000000000008152506020019850505050505050505060405180910390a160019050611226565b600090505b9392505050565b60006001151561123c85610aed565b15151461124857600080fd5b60006112538561131a565b905060008114156112685760009150506112ee565b8360026000838152602001908152602001600020600401908051906020019061129292919061136e565b50826002600083815260200190815260200160002060050160006101000a81548173ffffffffffffffffffffffffffffffffffffffff021916908373ffffffffffffffffffffffffffffffffffffffff16021790555060019150505b9392505050565b6000806002600084815260200190815260200160002060010154905080915050919050565b600080600090506000600190505b600154811161136457836002600083815260200190815260200160002060010154141561135757809150611364565b8080600101915050611328565b5080915050919050565b828054600181600116156101000203166002900490600052602060002090601f016020900481019282601f106113af57805160ff19168380011785556113dd565b828001600101855582156113dd579182015b828111156113dc5782518255916020019190600101906113c1565b5b5090506113ea919061146e565b5090565b828054600181600116156101000203166002900490600052602060002090601f016020900481019282601f1061142f57805160ff191683800117855561145d565b8280016001018555821561145d579182015b8281111561145c578251825591602001919060010190611441565b5b50905061146a919061146e565b5090565b61149091905b8082111561148c576000816000905550600101611474565b5090565b9056fea265627a7a7231582088323f53b799311f392bc105a0535732ca62899606d67c40affde524bb9abc9a64736f6c63430005100032",
  "source": "pragma solidity ^0.5.0;\n\ncontract LegitHub {\n\n    address public manufacturer;\n    uint public itemCount = 0;\n    \n    \n\n    struct Item {\n        uint id;\n        uint serialNumber;\n        string name;\n        string manfacturedDate;\n        string soldDate; //in form month/day/year\n        address owner;\n    }\n    mapping(uint => Item) public items;\n    //event itemCreated(uint id, uint serialNumber, string name, string soldDate, string manufacturedDate);\n    //event itemVerified(uint id, uint serialNumber, string name, string soldDate);\n    event itemCreated(uint id, uint serialNumber, string name, string soldDate, string manufacturedDate, address owner);\n    \n\n    constructor() public {\n        manufacturer = msg.sender;\n    }\n\n\n    function addItem (uint _serialNumber, string memory _name, string memory _manufacturedDate) public returns(uint){\n        //only manufacturer can add item \n        require (msg.sender == manufacturer);\n\n        //serial number must be 8 digits\n        require(_serialNumber >= 10000000 && _serialNumber <= 99999999);\n\n        if (_serialNumber >= 10000000 && _serialNumber <= 99999999) {\n            itemCount++;\n            //items[itemCount] = Item(itemCount, _serialNumber, _name, _manufacturedDate, \"00/00/0000\");\n            items[itemCount] = Item(itemCount, _serialNumber, _name, _manufacturedDate, \"00/00/0000\", manufacturer);\n\n            //emit itemCreated(itemCount, _serialNumber, _name, _manufacturedDate, \"00/00/0000\");\n            emit itemCreated(itemCount, _serialNumber, _name, _manufacturedDate, \"00/00/0000\", manufacturer);\n            return 1;\n        }\n        else {\n            return 0;\n        }\n\n        \n    }\n\n    function verifyItem (uint _serialNumber) public view returns (bool) {\n        bool found = false;\n        uint tempSerial;\n        for (uint i = 1; i <= itemCount; i++) {\n            tempSerial = getSerial(i);\n            if(tempSerial == _serialNumber) {\n                found = true;\n            }\n        }\n        return found;\n    }\n\n    function sellItem(uint _serialNumber, string memory _soldDate, address _newOwner) public returns (bool){\n        //require (msg.sender == manufacturer);\n        require(itemExists(_serialNumber) == true);\n\n        uint tempIndex = getIndex(_serialNumber);\n        if(tempIndex == 0) {\n            return false;\n        }\n        else {\n            items[tempIndex].soldDate = _soldDate;\n            items[tempIndex].owner = _newOwner;\n            return true;\n        }\n        \n\n    }\n\n    function resellItem(uint _serialNumber, string memory _soldDate, address _newOwner) public returns (bool){\n        uint tempInd = getIndex(_serialNumber);\n        if(tempInd == 0) {\n            return false;\n        }\n        else {\n            items[tempInd].soldDate = _soldDate;\n            items[tempInd].owner = _newOwner;\n            return true;\n        }\n        \n\n    }\n\n    function compareSendertoOwner(uint _serialNumber) public view returns (bool) {\n        bool isOwner = false;\n        uint index = getIndex(_serialNumber);\n\n        if (msg.sender == items[index].owner) {\n            isOwner = true;\n        }\n\n        else {\n            isOwner = false;\n        }\n        return isOwner;\n\n\n    }\n\n\n    function itemExists(uint _serialNumber) public view returns (bool) {\n        bool exists = false;\n        for(uint i = 1; i <= itemCount; i++) {\n            if(items[i].serialNumber == _serialNumber) {\n                exists = true;\n                break;\n            }\n        }\n        return exists;\n    }\n\n    function validSerial(uint _serialNumber) public pure returns (bool) {\n        bool valid = false;\n        if (_serialNumber >= 10000000 && _serialNumber <= 99999999) {\n            valid = true;\n        }\n\n        else {\n            valid = false;\n        }\n        return valid;\n    }\n    \n    function getOwner(uint _serialNumber) public view returns(address itemOwner){\n        uint index = getIndex(_serialNumber);\n        return items[index].owner;\n\n    }\n    function getAddress() public view returns(address) {\n        return msg.sender;\n    }\n    function getSerial(uint _itemCount) private view returns (uint) {\n        uint tempSerial;\n        tempSerial = items[_itemCount].serialNumber;\n        return tempSerial;\n    }\n\n    function getSoldDate(uint _serialNumber) public view returns (string memory) {\n        uint index = getIndex(_serialNumber);\n        return items[index].soldDate;\n    }\n    function getIndex(uint _serialNumber) private view returns (uint) {\n        uint tempIndex = 0;\n\n        for(uint i = 1; i <= itemCount; i++) {\n            if(items[i].serialNumber == _serialNumber) {\n                tempIndex = i;\n                break;\n            }\n        }\n        return tempIndex;\n    }\n}\n\n\n/*\npragma solidity ^0.5.0;\n\ncontract LegitHub {\n\n    address public manufacturer;\n\tuint public itemCount = 0;\n    \n    \n\n\tstruct Item {\n\t\tuint id;\n\t\tuint serialNumber;\n\t\tstring name;\n        string manfacturedDate;\n        string soldDate; //in form month/day/year\n        address owner;\n\t}\n    mapping(uint => Item) public items;\n\t//event itemCreated(uint id, uint serialNumber, string name, string soldDate, string manufacturedDate);\n    //event itemVerified(uint id, uint serialNumber, string name, string soldDate);\n\tevent itemCreated(uint id, uint serialNumber, string name, string soldDate, string manufacturedDate, address owner);\n    \n\n    constructor() public {\n        manufacturer = msg.sender;\n    }\n\n\n\tfunction addItem (uint _serialNumber, string memory _name, string memory _manufacturedDate) public returns(uint){\n        //only manufacturer can add item \n        require (msg.sender == manufacturer);\n\n        //serial number must be 8 digits\n        require(_serialNumber >= 10000000 && _serialNumber <= 99999999);\n\n        if (_serialNumber >= 10000000 && _serialNumber <= 99999999) {\n            itemCount++;\n            //items[itemCount] = Item(itemCount, _serialNumber, _name, _manufacturedDate, \"00/00/0000\");\n            items[itemCount] = Item(itemCount, _serialNumber, _name, _manufacturedDate, \"00/00/0000\", manufacturer);\n\n            //emit itemCreated(itemCount, _serialNumber, _name, _manufacturedDate, \"00/00/0000\");\n            emit itemCreated(itemCount, _serialNumber, _name, _manufacturedDate, \"00/00/0000\", manufacturer);\n            return 1;\n        }\n        else {\n            return 0;\n        }\n\n\t\t\n\t}\n\n    function verifyItem (uint _serialNumber) public view returns (bool) {\n        bool found = false;\n        uint tempSerial;\n        for (uint i = 1; i <= itemCount; i++) {\n            tempSerial = getSerial(i);\n            if(tempSerial == _serialNumber) {\n                found = true;\n            }\n        }\n        return found;\n    }\n\n    function sellItem(uint _serialNumber, string memory _soldDate, address _newOwner) public returns (bool){\n        require (msg.sender == manufacturer);\n        require(itemExists(_serialNumber) == true);\n\n        uint tempIndex = getIndex(_serialNumber);\n        if(tempIndex == 0) {\n            return false;\n        }\n        else {\n            items[tempIndex].soldDate = _soldDate;\n            items[tempIndex].owner = _newOwner;\n            return true;\n        }\n        \n\n    }\n\n    function resellItem(uint _serialNumber, string memory _soldDate, address _newOwner) public returns (bool){\n        uint tempInd = getIndex(_serialNumber);\n        if(tempInd == 0) {\n            return false;\n        }\n        else {\n            items[tempInd].soldDate = _soldDate;\n            items[tempInd].owner = _newOwner;\n            return true;\n        }\n        \n\n    }\n\n    function itemExists(uint _serialNumber) private returns (bool) {\n        bool exists = false;\n        for(uint i = 1; i <= itemCount; i++) {\n            if(items[i].serialNumber == _serialNumber) {\n                exists = true;\n                break;\n            }\n        }\n        return exists;\n    }\n    \n    function getAddress() public view returns(address) {\n        return msg.sender;\n    }\n    function getSerial(uint _itemCount) private view returns (uint) {\n        uint tempSerial;\n        tempSerial = items[_itemCount].serialNumber;\n        return tempSerial;\n    }\n\n    function getSoldDate(uint _serialNumber) public view returns (string memory) {\n        uint index = getIndex(_serialNumber);\n        return items[index].soldDate;\n    }\n    function getIndex(uint _serialNumber) private view returns (uint) {\n        uint tempIndex = 0;\n\n        for(uint i = 1; i <= itemCount; i++) {\n            if(items[i].serialNumber == _serialNumber) {\n                tempIndex = i;\n                break;\n            }\n        }\n        return tempIndex;\n    }\n}\n*/",
  "sourcePath": "/Users/darrenheck/LegitHub/src/contracts/LegitHub.sol",
  "compiler": {
    "name": "solc",
    "version": "0.5.16+commit.9c3226ce.Emscripten.clang"
  },
  "schemaVersion": "3.4.3",
  "updatedAt": "2021-12-02T11:39:02.575Z",
  "networkType": "ethereum",
  "devdoc": {
    "methods": {}
  },
  "userdoc": {
    "methods": {}
  }
}